{
  "contractName": "ImmutableTaxLedger",
  "abi": [
    {
      "anonymous": false,
      "inputs": [
        {
          "indexed": true,
          "internalType": "bytes32",
          "name": "recordId",
          "type": "bytes32"
        },
        {
          "indexed": false,
          "internalType": "bytes32",
          "name": "dataHash",
          "type": "bytes32"
        }
      ],
      "name": "TaxRecordAdded",
      "type": "event"
    },
    {
      "inputs": [
        {
          "internalType": "bytes32",
          "name": "",
          "type": "bytes32"
        }
      ],
      "name": "taxRecords",
      "outputs": [
        {
          "internalType": "bytes32",
          "name": "dataHash",
          "type": "bytes32"
        },
        {
          "internalType": "bytes32",
          "name": "computationHash",
          "type": "bytes32"
        },
        {
          "internalType": "bool",
          "name": "complianceStatus",
          "type": "bool"
        },
        {
          "internalType": "string",
          "name": "aiModelVersion",
          "type": "string"
        }
      ],
      "stateMutability": "view",
      "type": "function",
      "constant": true
    },
    {
      "inputs": [
        {
          "internalType": "bytes32",
          "name": "recordId",
          "type": "bytes32"
        },
        {
          "internalType": "bytes32",
          "name": "dataHash",
          "type": "bytes32"
        },
        {
          "internalType": "bytes32",
          "name": "computationHash",
          "type": "bytes32"
        },
        {
          "internalType": "bool",
          "name": "complianceStatus",
          "type": "bool"
        },
        {
          "internalType": "string",
          "name": "aiModelVersion",
          "type": "string"
        }
      ],
      "name": "addTaxRecord",
      "outputs": [],
      "stateMutability": "nonpayable",
      "type": "function"
    },
    {
      "inputs": [
        {
          "internalType": "bytes32",
          "name": "recordId",
          "type": "bytes32"
        },
        {
          "internalType": "bytes32",
          "name": "dataHash",
          "type": "bytes32"
        }
      ],
      "name": "verifyTaxRecord",
      "outputs": [
        {
          "internalType": "bool",
          "name": "",
          "type": "bool"
        }
      ],
      "stateMutability": "view",
      "type": "function",
      "constant": true
    }
  ],
  "bytecode": "0x6080604052348015600e575f5ffd5b506109148061001c5f395ff3fe608060405234801561000f575f5ffd5b506004361061003f575f3560e01c80635a865eca14610043578063c14e3b9a14610076578063d7a7f2e3146100a6575b5f5ffd5b61005d600480360381019061005891906102a2565b6100c2565b60405161006d9493929190610366565b60405180910390f35b610090600480360381019061008b91906103b0565b61017f565b60405161009d91906103ee565b60405180910390f35b6100c060048036038101906100bb919061055d565b61019d565b005b5f602052805f5260405f205f91509050805f015490806001015490806002015f9054906101000a900460ff16908060030180546100fe9061061d565b80601f016020809104026020016040519081016040528092919081815260200182805461012a9061061d565b80156101755780601f1061014c57610100808354040283529160200191610175565b820191905f5260205f20905b81548152906001019060200180831161015857829003601f168201915b5050505050905084565b5f815f5f8581526020019081526020015f205f015414905092915050565b5f60405180608001604052808681526020018581526020018415158152602001838152509050805f5f8881526020019081526020015f205f820151815f0155602082015181600101556040820151816002015f6101000a81548160ff021916908315150217905550606082015181600301908161021a91906107f6565b50905050857f85d18cd491da34a09435d179a6493a7c70e684f0dbb34b7e794834f980da8dd38660405161024e91906108c5565b60405180910390a2505050505050565b5f604051905090565b5f5ffd5b5f5ffd5b5f819050919050565b6102818161026f565b811461028b575f5ffd5b50565b5f8135905061029c81610278565b92915050565b5f602082840312156102b7576102b6610267565b5b5f6102c48482850161028e565b91505092915050565b6102d68161026f565b82525050565b5f8115159050919050565b6102f0816102dc565b82525050565b5f81519050919050565b5f82825260208201905092915050565b8281835e5f83830152505050565b5f601f19601f8301169050919050565b5f610338826102f6565b6103428185610300565b9350610352818560208601610310565b61035b8161031e565b840191505092915050565b5f6080820190506103795f8301876102cd565b61038660208301866102cd565b61039360408301856102e7565b81810360608301526103a5818461032e565b905095945050505050565b5f5f604083850312156103c6576103c5610267565b5b5f6103d38582860161028e565b92505060206103e48582860161028e565b9150509250929050565b5f6020820190506104015f8301846102e7565b92915050565b610410816102dc565b811461041a575f5ffd5b50565b5f8135905061042b81610407565b92915050565b5f5ffd5b5f5ffd5b7f4e487b71000000000000000000000000000000000000000000000000000000005f52604160045260245ffd5b61046f8261031e565b810181811067ffffffffffffffff8211171561048e5761048d610439565b5b80604052505050565b5f6104a061025e565b90506104ac8282610466565b919050565b5f67ffffffffffffffff8211156104cb576104ca610439565b5b6104d48261031e565b9050602081019050919050565b828183375f83830152505050565b5f6105016104fc846104b1565b610497565b90508281526020810184848401111561051d5761051c610435565b5b6105288482856104e1565b509392505050565b5f82601f83011261054457610543610431565b5b81356105548482602086016104ef565b91505092915050565b5f5f5f5f5f60a0868803121561057657610575610267565b5b5f6105838882890161028e565b95505060206105948882890161028e565b94505060406105a58882890161028e565b93505060606105b68882890161041d565b925050608086013567ffffffffffffffff8111156105d7576105d661026b565b5b6105e388828901610530565b9150509295509295909350565b7f4e487b71000000000000000000000000000000000000000000000000000000005f52602260045260245ffd5b5f600282049050600182168061063457607f821691505b602082108103610647576106466105f0565b5b50919050565b5f819050815f5260205f209050919050565b5f6020601f8301049050919050565b5f82821b905092915050565b5f600883026106a97fffffffffffffffffffffffffffffffffffffffffffffffffffffffffffffffff8261066e565b6106b3868361066e565b95508019841693508086168417925050509392505050565b5f819050919050565b5f819050919050565b5f6106f76106f26106ed846106cb565b6106d4565b6106cb565b9050919050565b5f819050919050565b610710836106dd565b61072461071c826106fe565b84845461067a565b825550505050565b5f5f905090565b61073b61072c565b610746818484610707565b505050565b5b818110156107695761075e5f82610733565b60018101905061074c565b5050565b601f8211156107ae5761077f8161064d565b6107888461065f565b81016020851015610797578190505b6107ab6107a38561065f565b83018261074b565b50505b505050565b5f82821c905092915050565b5f6107ce5f19846008026107b3565b1980831691505092915050565b5f6107e683836107bf565b9150826002028217905092915050565b6107ff826102f6565b67ffffffffffffffff81111561081857610817610439565b5b610822825461061d565b61082d82828561076d565b5f60209050601f83116001811461085e575f841561084c578287015190505b61085685826107db565b8655506108bd565b601f19841661086c8661064d565b5f5b828110156108935784890151825560018201915060208501945060208101905061086e565b868310156108b057848901516108ac601f8916826107bf565b8355505b6001600288020188555050505b505050505050565b5f6020820190506108d85f8301846102cd565b9291505056fea2646970667358221220374fd4b5afb8a16c046d828eddecee183f8fe19d42abc77bd6990a69616a15bf64736f6c634300081c0033",
  "immutableReferences": {},
  "source": "// SPDX-License-Identifier: MIT\r\npragma solidity ^0.8.0;\r\n\r\ncontract ImmutableTaxLedger {\r\n    struct TaxRecord {\r\n        bytes32 dataHash;\r\n        bytes32 computationHash;\r\n        bool complianceStatus;\r\n        string aiModelVersion;\r\n    }\r\n\r\n    mapping(bytes32 => TaxRecord) public taxRecords;\r\n\r\n    event TaxRecordAdded(bytes32 indexed recordId, bytes32 dataHash);\r\n\r\n    function addTaxRecord(\r\n        bytes32 recordId,\r\n        bytes32 dataHash,\r\n        bytes32 computationHash,\r\n        bool complianceStatus,\r\n        string memory aiModelVersion\r\n    ) public {\r\n        TaxRecord memory newRecord = TaxRecord(\r\n            dataHash,\r\n            computationHash,\r\n            complianceStatus,\r\n            aiModelVersion\r\n        );\r\n        taxRecords[recordId] = newRecord;\r\n        emit TaxRecordAdded(recordId, dataHash);\r\n    }\r\n\r\n    function verifyTaxRecord(bytes32 recordId, bytes32 dataHash) public view returns (bool) {\r\n        return taxRecords[recordId].dataHash == dataHash;\r\n    }\r\n}\r\n",
  "sourcePath": "C:\\Users\\91809\\OneDrive\\Desktop\\TaxSmart\\blockchain\\contracts\\ImmutableTaxLedger.sol",
  "compiler": {
    "name": "solc",
    "version": "0.8.28+commit.7893614a.Emscripten.clang"
  },
  "schemaVersion": "3.4.16",
  "updatedAt": "2025-02-28T02:56:38.420Z",
  "networkType": "ethereum",
  "devdoc": {
    "kind": "dev",
    "methods": {},
    "version": 1
  },
  "userdoc": {
    "kind": "user",
    "methods": {},
    "version": 1
  }
}